{
  "_format": "hh-sol-artifact-1",
  "contractName": "SplitExpense",
  "sourceName": "contracts/SplitExpense.sol",
  "abi": [
    {
      "anonymous": false,
      "inputs": [
        {
          "indexed": true,
          "internalType": "address",
          "name": "payer",
          "type": "address"
        },
        {
          "indexed": false,
          "internalType": "uint256",
          "name": "amount",
          "type": "uint256"
        }
      ],
      "name": "ExpenseSplit",
      "type": "event"
    },
    {
      "inputs": [],
      "name": "getShares",
      "outputs": [
        {
          "internalType": "address[]",
          "name": "",
          "type": "address[]"
        },
        {
          "internalType": "uint256[]",
          "name": "",
          "type": "uint256[]"
        }
      ],
      "stateMutability": "view",
      "type": "function"
    },
    {
      "inputs": [
        {
          "internalType": "address",
          "name": "",
          "type": "address"
        }
      ],
      "name": "shares",
      "outputs": [
        {
          "internalType": "uint256",
          "name": "",
          "type": "uint256"
        }
      ],
      "stateMutability": "view",
      "type": "function"
    },
    {
      "inputs": [
        {
          "internalType": "address[]",
          "name": "friends",
          "type": "address[]"
        },
        {
          "internalType": "uint256",
          "name": "amount",
          "type": "uint256"
        }
      ],
      "name": "splitExpense",
      "outputs": [],
      "stateMutability": "nonpayable",
      "type": "function"
    }
  ],
  "bytecode": "0x608060405234801561001057600080fd5b50610b6b806100206000396000f3fe608060405234801561001057600080fd5b50600436106100415760003560e01c8063ce7c2ac214610046578063d73fe0aa14610076578063d8be917814610095575b600080fd5b610060600480360381019061005b919061067e565b6100b1565b60405161006d91906106c4565b60405180910390f35b61007e6100c9565b60405161008c92919061085b565b60405180910390f35b6100af60048036038101906100aa9190610923565b61040e565b005b60006020528060005260406000206000915090505481565b6060806000805b600180549050811015610184576000806000600184815481106100f6576100f5610983565b5b9060005260206000200160009054906101000a900473ffffffffffffffffffffffffffffffffffffffff1673ffffffffffffffffffffffffffffffffffffffff1673ffffffffffffffffffffffffffffffffffffffff16815260200190815260200160002054111561017157818061016d906109e1565b9250505b808061017c906109e1565b9150506100d0565b5060008167ffffffffffffffff8111156101a1576101a0610a29565b5b6040519080825280602002602001820160405280156101cf5781602001602082028036833780820191505090505b50905060008267ffffffffffffffff8111156101ee576101ed610a29565b5b60405190808252806020026020018201604052801561021c5781602001602082028036833780820191505090505b5090506000805b6001805490508110156103ff5760008060006001848154811061024957610248610983565b5b9060005260206000200160009054906101000a900473ffffffffffffffffffffffffffffffffffffffff1673ffffffffffffffffffffffffffffffffffffffff1673ffffffffffffffffffffffffffffffffffffffff1681526020019081526020016000205411156103ec57600181815481106102c9576102c8610983565b5b9060005260206000200160009054906101000a900473ffffffffffffffffffffffffffffffffffffffff1684838151811061030757610306610983565b5b602002602001019073ffffffffffffffffffffffffffffffffffffffff16908173ffffffffffffffffffffffffffffffffffffffff16815250506000806001838154811061035857610357610983565b5b9060005260206000200160009054906101000a900473ffffffffffffffffffffffffffffffffffffffff1673ffffffffffffffffffffffffffffffffffffffff1673ffffffffffffffffffffffffffffffffffffffff168152602001908152602001600020548383815181106103d1576103d0610983565b5b60200260200101818152505081806103e8906109e1565b9250505b80806103f7906109e1565b915050610223565b50828295509550505050509091565b600083839050905060008111610459576040517f08c379a000000000000000000000000000000000000000000000000000000000815260040161045090610ab5565b60405180910390fd5b83836001919061046a929190610559565b50600081836104799190610b04565b905060005b82811015610503578160008088888581811061049d5761049c610983565b5b90506020020160208101906104b2919061067e565b73ffffffffffffffffffffffffffffffffffffffff1673ffffffffffffffffffffffffffffffffffffffff1681526020019081526020016000208190555080806104fb906109e1565b91505061047e565b503373ffffffffffffffffffffffffffffffffffffffff167fafcb1bb25133c7807f097a7bc5da3235ce5ce7c7b79541a619ef151b4f8d01158460405161054a91906106c4565b60405180910390a25050505050565b8280548282559060005260206000209081019282156105e8579160200282015b828111156105e757823573ffffffffffffffffffffffffffffffffffffffff168260006101000a81548173ffffffffffffffffffffffffffffffffffffffff021916908373ffffffffffffffffffffffffffffffffffffffff16021790555091602001919060010190610579565b5b5090506105f591906105f9565b5090565b5b808211156106125760008160009055506001016105fa565b5090565b600080fd5b600080fd5b600073ffffffffffffffffffffffffffffffffffffffff82169050919050565b600061064b82610620565b9050919050565b61065b81610640565b811461066657600080fd5b50565b60008135905061067881610652565b92915050565b60006020828403121561069457610693610616565b5b60006106a284828501610669565b91505092915050565b6000819050919050565b6106be816106ab565b82525050565b60006020820190506106d960008301846106b5565b92915050565b600081519050919050565b600082825260208201905092915050565b6000819050602082019050919050565b61071481610640565b82525050565b6000610726838361070b565b60208301905092915050565b6000602082019050919050565b600061074a826106df565b61075481856106ea565b935061075f836106fb565b8060005b83811015610790578151610777888261071a565b975061078283610732565b925050600181019050610763565b5085935050505092915050565b600081519050919050565b600082825260208201905092915050565b6000819050602082019050919050565b6107d2816106ab565b82525050565b60006107e483836107c9565b60208301905092915050565b6000602082019050919050565b60006108088261079d565b61081281856107a8565b935061081d836107b9565b8060005b8381101561084e57815161083588826107d8565b9750610840836107f0565b925050600181019050610821565b5085935050505092915050565b60006040820190508181036000830152610875818561073f565b9050818103602083015261088981846107fd565b90509392505050565b600080fd5b600080fd5b600080fd5b60008083601f8401126108b7576108b6610892565b5b8235905067ffffffffffffffff8111156108d4576108d3610897565b5b6020830191508360208202830111156108f0576108ef61089c565b5b9250929050565b610900816106ab565b811461090b57600080fd5b50565b60008135905061091d816108f7565b92915050565b60008060006040848603121561093c5761093b610616565b5b600084013567ffffffffffffffff81111561095a5761095961061b565b5b610966868287016108a1565b935093505060206109798682870161090e565b9150509250925092565b7f4e487b7100000000000000000000000000000000000000000000000000000000600052603260045260246000fd5b7f4e487b7100000000000000000000000000000000000000000000000000000000600052601160045260246000fd5b60006109ec826106ab565b91507fffffffffffffffffffffffffffffffffffffffffffffffffffffffffffffffff8203610a1e57610a1d6109b2565b5b600182019050919050565b7f4e487b7100000000000000000000000000000000000000000000000000000000600052604160045260246000fd5b600082825260208201905092915050565b7f4174206c65617374206f6e6520667269656e6420697320726571756972656400600082015250565b6000610a9f601f83610a58565b9150610aaa82610a69565b602082019050919050565b60006020820190508181036000830152610ace81610a92565b9050919050565b7f4e487b7100000000000000000000000000000000000000000000000000000000600052601260045260246000fd5b6000610b0f826106ab565b9150610b1a836106ab565b925082610b2a57610b29610ad5565b5b82820490509291505056fea264697066735822122076672fcf694352ffeec5c2f4cca537895aa431382ac7ed3c7a3fe4701e80a77a64736f6c63430008120033",
  "linkReferences": {},
  "deployedLinkReferences": {}
}