{
  "_format": "hh-sol-artifact-1",
  "contractName": "SplitExpense",
  "sourceName": "contracts/SplitExpense.sol",
  "abi": [
    {
      "inputs": [],
      "stateMutability": "nonpayable",
      "type": "constructor"
    },
    {
      "anonymous": false,
      "inputs": [
        {
          "indexed": true,
          "internalType": "address",
          "name": "creator",
          "type": "address"
        },
        {
          "indexed": false,
          "internalType": "uint256",
          "name": "totalExpense",
          "type": "uint256"
        }
      ],
      "name": "ExpenseCreated",
      "type": "event"
    },
    {
      "anonymous": false,
      "inputs": [
        {
          "indexed": true,
          "internalType": "address",
          "name": "payer",
          "type": "address"
        },
        {
          "indexed": false,
          "internalType": "uint256",
          "name": "amount",
          "type": "uint256"
        },
        {
          "indexed": false,
          "internalType": "string",
          "name": "groupName",
          "type": "string"
        }
      ],
      "name": "ExpenseSettled",
      "type": "event"
    },
    {
      "anonymous": false,
      "inputs": [
        {
          "indexed": true,
          "internalType": "address",
          "name": "payer",
          "type": "address"
        },
        {
          "indexed": false,
          "internalType": "uint256",
          "name": "amount",
          "type": "uint256"
        },
        {
          "indexed": false,
          "internalType": "string",
          "name": "groupName",
          "type": "string"
        }
      ],
      "name": "ExpenseSplit",
      "type": "event"
    },
    {
      "inputs": [
        {
          "internalType": "string",
          "name": "_groupName",
          "type": "string"
        }
      ],
      "name": "calculateGroupPayment",
      "outputs": [
        {
          "internalType": "uint256",
          "name": "",
          "type": "uint256"
        }
      ],
      "stateMutability": "view",
      "type": "function"
    },
    {
      "inputs": [],
      "name": "calculatePayment",
      "outputs": [
        {
          "internalType": "uint256",
          "name": "",
          "type": "uint256"
        }
      ],
      "stateMutability": "view",
      "type": "function"
    },
    {
      "inputs": [
        {
          "internalType": "uint256",
          "name": "",
          "type": "uint256"
        }
      ],
      "name": "friends",
      "outputs": [
        {
          "internalType": "address",
          "name": "",
          "type": "address"
        }
      ],
      "stateMutability": "view",
      "type": "function"
    },
    {
      "inputs": [
        {
          "internalType": "string",
          "name": "_groupName",
          "type": "string"
        }
      ],
      "name": "getGroupShares",
      "outputs": [
        {
          "internalType": "address[]",
          "name": "",
          "type": "address[]"
        },
        {
          "internalType": "uint256[]",
          "name": "",
          "type": "uint256[]"
        }
      ],
      "stateMutability": "view",
      "type": "function"
    },
    {
      "inputs": [
        {
          "internalType": "string",
          "name": "",
          "type": "string"
        },
        {
          "internalType": "address",
          "name": "",
          "type": "address"
        }
      ],
      "name": "groupShares",
      "outputs": [
        {
          "internalType": "uint256",
          "name": "",
          "type": "uint256"
        }
      ],
      "stateMutability": "view",
      "type": "function"
    },
    {
      "inputs": [],
      "name": "owner",
      "outputs": [
        {
          "internalType": "address",
          "name": "",
          "type": "address"
        }
      ],
      "stateMutability": "view",
      "type": "function"
    },
    {
      "inputs": [
        {
          "internalType": "string",
          "name": "_groupName",
          "type": "string"
        }
      ],
      "name": "payGroupShare",
      "outputs": [],
      "stateMutability": "payable",
      "type": "function"
    },
    {
      "inputs": [],
      "name": "payMyShare",
      "outputs": [],
      "stateMutability": "payable",
      "type": "function"
    },
    {
      "inputs": [
        {
          "internalType": "address",
          "name": "",
          "type": "address"
        }
      ],
      "name": "paymentSettled",
      "outputs": [
        {
          "internalType": "bool",
          "name": "",
          "type": "bool"
        }
      ],
      "stateMutability": "view",
      "type": "function"
    },
    {
      "inputs": [
        {
          "internalType": "uint256",
          "name": "_totalExpense",
          "type": "uint256"
        }
      ],
      "name": "setExpense",
      "outputs": [],
      "stateMutability": "nonpayable",
      "type": "function"
    },
    {
      "inputs": [
        {
          "internalType": "address",
          "name": "",
          "type": "address"
        }
      ],
      "name": "shares",
      "outputs": [
        {
          "internalType": "uint256",
          "name": "",
          "type": "uint256"
        }
      ],
      "stateMutability": "view",
      "type": "function"
    },
    {
      "inputs": [
        {
          "internalType": "address[]",
          "name": "_friends",
          "type": "address[]"
        },
        {
          "internalType": "string",
          "name": "_groupName",
          "type": "string"
        }
      ],
      "name": "splitExpense",
      "outputs": [],
      "stateMutability": "nonpayable",
      "type": "function"
    },
    {
      "inputs": [],
      "name": "totalExpense",
      "outputs": [
        {
          "internalType": "uint256",
          "name": "",
          "type": "uint256"
        }
      ],
      "stateMutability": "view",
      "type": "function"
    }
  ],
  "bytecode": "0x608060405234801561001057600080fd5b50336000806101000a81548173ffffffffffffffffffffffffffffffffffffffff021916908373ffffffffffffffffffffffffffffffffffffffff160217905550611c5c806100606000396000f3fe6080604052600436106100c25760003560e01c8063b226e8b71161007f578063ce14682811610059578063ce1468281461024d578063ce7c2ac21461028a578063ed0c46c3146102c7578063f640a0ae146102f2576100c2565b8063b226e8b7146101dd578063b6e7112f14610206578063ca30d06814610210576100c2565b80631ce11efd146100c757806332d35c351461010557806339bde84c146101215780638da5cb5b1461014c5780638dc5505a14610177578063ad96022c146101a0575b600080fd5b3480156100d357600080fd5b506100ee60048036038101906100e991906111f0565b61032f565b6040516100fc9291906113f1565b60405180910390f35b61011f600480360381019061011a91906111f0565b6106cc565b005b34801561012d57600080fd5b50610136610946565b6040516101439190611437565b60405180910390f35b34801561015857600080fd5b5061016161098d565b60405161016e9190611461565b60405180910390f35b34801561018357600080fd5b5061019e600480360381019061019991906114a8565b6109b1565b005b3480156101ac57600080fd5b506101c760048036038101906101c29190611501565b610a09565b6040516101d49190611549565b60405180910390f35b3480156101e957600080fd5b5061020460048036038101906101ff91906115c4565b610a29565b005b61020e610c81565b005b34801561021c57600080fd5b5061023760048036038101906102329190611640565b610edc565b6040516102449190611437565b60405180910390f35b34801561025957600080fd5b50610274600480360381019061026f91906114a8565b610f17565b6040516102819190611461565b60405180910390f35b34801561029657600080fd5b506102b160048036038101906102ac9190611501565b610f56565b6040516102be9190611437565b60405180910390f35b3480156102d357600080fd5b506102dc610f6e565b6040516102e99190611437565b60405180910390f35b3480156102fe57600080fd5b50610319600480360381019061031491906111f0565b610f74565b6040516103269190611437565b60405180910390f35b6060806000805b600580549050811015610407576000600486604051610355919061170d565b908152602001604051809103902060006005848154811061037957610378611724565b5b9060005260206000200160009054906101000a900473ffffffffffffffffffffffffffffffffffffffff1673ffffffffffffffffffffffffffffffffffffffff1673ffffffffffffffffffffffffffffffffffffffff1681526020019081526020016000205411156103f45781806103f090611782565b9250505b80806103ff90611782565b915050610336565b5060008167ffffffffffffffff811115610424576104236110c5565b5b6040519080825280602002602001820160405280156104525781602001602082028036833780820191505090505b50905060008267ffffffffffffffff811115610471576104706110c5565b5b60405190808252806020026020018201604052801561049f5781602001602082028036833780820191505090505b5090506000805b6005805490508110156106bc5760006004896040516104c5919061170d565b90815260200160405180910390206000600584815481106104e9576104e8611724565b5b9060005260206000200160009054906101000a900473ffffffffffffffffffffffffffffffffffffffff1673ffffffffffffffffffffffffffffffffffffffff1673ffffffffffffffffffffffffffffffffffffffff1681526020019081526020016000205411156106a9576005818154811061056957610568611724565b5b9060005260206000200160009054906101000a900473ffffffffffffffffffffffffffffffffffffffff168483815181106105a7576105a6611724565b5b602002602001019073ffffffffffffffffffffffffffffffffffffffff16908173ffffffffffffffffffffffffffffffffffffffff16815250506004886040516105f1919061170d565b908152602001604051809103902060006005838154811061061557610614611724565b5b9060005260206000200160009054906101000a900473ffffffffffffffffffffffffffffffffffffffff1673ffffffffffffffffffffffffffffffffffffffff1673ffffffffffffffffffffffffffffffffffffffff1681526020019081526020016000205483838151811061068e5761068d611724565b5b60200260200101818152505081806106a590611782565b9250505b80806106b490611782565b9150506104a6565b5082829550955050505050915091565b60006004826040516106de919061170d565b908152602001604051809103902060003373ffffffffffffffffffffffffffffffffffffffff1673ffffffffffffffffffffffffffffffffffffffff1681526020019081526020016000205490506000811161076f576040517f08c379a00000000000000000000000000000000000000000000000000000000081526004016107669061184d565b60405180910390fd5b600360003373ffffffffffffffffffffffffffffffffffffffff1673ffffffffffffffffffffffffffffffffffffffff16815260200190815260200160002060009054906101000a900460ff16156107fc576040517f08c379a00000000000000000000000000000000000000000000000000000000081526004016107f3906118df565b60405180910390fd5b8034101561083f576040517f08c379a00000000000000000000000000000000000000000000000000000000081526004016108369061194b565b60405180910390fd5b6001600360003373ffffffffffffffffffffffffffffffffffffffff1673ffffffffffffffffffffffffffffffffffffffff16815260200190815260200160002060006101000a81548160ff0219169083151502179055503373ffffffffffffffffffffffffffffffffffffffff167f67580c7a049322660093961ac9680ef549ea5f1678a6f1a34ce1090aeb4a2d7082846040516108df9291906119a4565b60405180910390a280341115610942573373ffffffffffffffffffffffffffffffffffffffff166108fc823461091591906119d4565b9081150290604051600060405180830381858888f19350505050158015610940573d6000803e3d6000fd5b505b5050565b6000600260003373ffffffffffffffffffffffffffffffffffffffff1673ffffffffffffffffffffffffffffffffffffffff16815260200190815260200160002054905090565b60008054906101000a900473ffffffffffffffffffffffffffffffffffffffff1681565b806001819055503373ffffffffffffffffffffffffffffffffffffffff167f766aa7520dd5107e567d72029fed47afc20a7b8581bff3d5c6c2826f0b6acec2826040516109fe9190611437565b60405180910390a250565b60036020528060005260406000206000915054906101000a900460ff1681565b600083839050905060008111610a74576040517f08c379a0000000000000000000000000000000000000000000000000000000008152600401610a6b90611a54565b60405180910390fd5b838360059190610a85929190610fd9565b50600081600154610a969190611aa3565b905060005b82811015610c27578160026000888885818110610abb57610aba611724565b5b9050602002016020810190610ad09190611501565b73ffffffffffffffffffffffffffffffffffffffff1673ffffffffffffffffffffffffffffffffffffffff16815260200190815260200160002081905550600060036000888885818110610b2757610b26611724565b5b9050602002016020810190610b3c9190611501565b73ffffffffffffffffffffffffffffffffffffffff1673ffffffffffffffffffffffffffffffffffffffff16815260200190815260200160002060006101000a81548160ff02191690831515021790555081600485604051610b9e919061170d565b90815260200160405180910390206000888885818110610bc157610bc0611724565b5b9050602002016020810190610bd69190611501565b73ffffffffffffffffffffffffffffffffffffffff1673ffffffffffffffffffffffffffffffffffffffff168152602001908152602001600020819055508080610c1f90611782565b915050610a9b565b503373ffffffffffffffffffffffffffffffffffffffff167f6f957153bf9d65e09c315e31886ff280174bd0e84ca2c15bab952be297dd2ef060015485604051610c729291906119a4565b60405180910390a25050505050565b6000600260003373ffffffffffffffffffffffffffffffffffffffff1673ffffffffffffffffffffffffffffffffffffffff16815260200190815260200160002054905060008111610d08576040517f08c379a0000000000000000000000000000000000000000000000000000000008152600401610cff90611b46565b60405180910390fd5b600360003373ffffffffffffffffffffffffffffffffffffffff1673ffffffffffffffffffffffffffffffffffffffff16815260200190815260200160002060009054906101000a900460ff1615610d95576040517f08c379a0000000000000000000000000000000000000000000000000000000008152600401610d8c90611bb2565b60405180910390fd5b80341015610dd8576040517f08c379a0000000000000000000000000000000000000000000000000000000008152600401610dcf9061194b565b60405180910390fd5b6001600360003373ffffffffffffffffffffffffffffffffffffffff1673ffffffffffffffffffffffffffffffffffffffff16815260200190815260200160002060006101000a81548160ff0219169083151502179055503373ffffffffffffffffffffffffffffffffffffffff167f67580c7a049322660093961ac9680ef549ea5f1678a6f1a34ce1090aeb4a2d7082604051610e769190611bf8565b60405180910390a280341115610ed9573373ffffffffffffffffffffffffffffffffffffffff166108fc8234610eac91906119d4565b9081150290604051600060405180830381858888f19350505050158015610ed7573d6000803e3d6000fd5b505b50565b600482805160208101820180518482526020830160208501208183528095505050505050602052806000526040600020600091509150505481565b60058181548110610f2757600080fd5b906000526020600020016000915054906101000a900473ffffffffffffffffffffffffffffffffffffffff1681565b60026020528060005260406000206000915090505481565b60015481565b6000600482604051610f86919061170d565b908152602001604051809103902060003373ffffffffffffffffffffffffffffffffffffffff1673ffffffffffffffffffffffffffffffffffffffff168152602001908152602001600020549050919050565b828054828255906000526020600020908101928215611068579160200282015b8281111561106757823573ffffffffffffffffffffffffffffffffffffffff168260006101000a81548173ffffffffffffffffffffffffffffffffffffffff021916908373ffffffffffffffffffffffffffffffffffffffff16021790555091602001919060010190610ff9565b5b5090506110759190611079565b5090565b5b8082111561109257600081600090555060010161107a565b5090565b6000604051905090565b600080fd5b600080fd5b600080fd5b600080fd5b6000601f19601f8301169050919050565b7f4e487b7100000000000000000000000000000000000000000000000000000000600052604160045260246000fd5b6110fd826110b4565b810181811067ffffffffffffffff8211171561111c5761111b6110c5565b5b80604052505050565b600061112f611096565b905061113b82826110f4565b919050565b600067ffffffffffffffff82111561115b5761115a6110c5565b5b611164826110b4565b9050602081019050919050565b82818337600083830152505050565b600061119361118e84611140565b611125565b9050828152602081018484840111156111af576111ae6110af565b5b6111ba848285611171565b509392505050565b600082601f8301126111d7576111d66110aa565b5b81356111e7848260208601611180565b91505092915050565b600060208284031215611206576112056110a0565b5b600082013567ffffffffffffffff811115611224576112236110a5565b5b611230848285016111c2565b91505092915050565b600081519050919050565b600082825260208201905092915050565b6000819050602082019050919050565b600073ffffffffffffffffffffffffffffffffffffffff82169050919050565b600061129082611265565b9050919050565b6112a081611285565b82525050565b60006112b28383611297565b60208301905092915050565b6000602082019050919050565b60006112d682611239565b6112e08185611244565b93506112eb83611255565b8060005b8381101561131c57815161130388826112a6565b975061130e836112be565b9250506001810190506112ef565b5085935050505092915050565b600081519050919050565b600082825260208201905092915050565b6000819050602082019050919050565b6000819050919050565b61136881611355565b82525050565b600061137a838361135f565b60208301905092915050565b6000602082019050919050565b600061139e82611329565b6113a88185611334565b93506113b383611345565b8060005b838110156113e45781516113cb888261136e565b97506113d683611386565b9250506001810190506113b7565b5085935050505092915050565b6000604082019050818103600083015261140b81856112cb565b9050818103602083015261141f8184611393565b90509392505050565b61143181611355565b82525050565b600060208201905061144c6000830184611428565b92915050565b61145b81611285565b82525050565b60006020820190506114766000830184611452565b92915050565b61148581611355565b811461149057600080fd5b50565b6000813590506114a28161147c565b92915050565b6000602082840312156114be576114bd6110a0565b5b60006114cc84828501611493565b91505092915050565b6114de81611285565b81146114e957600080fd5b50565b6000813590506114fb816114d5565b92915050565b600060208284031215611517576115166110a0565b5b6000611525848285016114ec565b91505092915050565b60008115159050919050565b6115438161152e565b82525050565b600060208201905061155e600083018461153a565b92915050565b600080fd5b600080fd5b60008083601f840112611584576115836110aa565b5b8235905067ffffffffffffffff8111156115a1576115a0611564565b5b6020830191508360208202830111156115bd576115bc611569565b5b9250929050565b6000806000604084860312156115dd576115dc6110a0565b5b600084013567ffffffffffffffff8111156115fb576115fa6110a5565b5b6116078682870161156e565b9350935050602084013567ffffffffffffffff81111561162a576116296110a5565b5b611636868287016111c2565b9150509250925092565b60008060408385031215611657576116566110a0565b5b600083013567ffffffffffffffff811115611675576116746110a5565b5b611681858286016111c2565b9250506020611692858286016114ec565b9150509250929050565b600081519050919050565b600081905092915050565b60005b838110156116d05780820151818401526020810190506116b5565b60008484015250505050565b60006116e78261169c565b6116f181856116a7565b93506117018185602086016116b2565b80840191505092915050565b600061171982846116dc565b915081905092915050565b7f4e487b7100000000000000000000000000000000000000000000000000000000600052603260045260246000fd5b7f4e487b7100000000000000000000000000000000000000000000000000000000600052601160045260246000fd5b600061178d82611355565b91507fffffffffffffffffffffffffffffffffffffffffffffffffffffffffffffffff82036117bf576117be611753565b5b600182019050919050565b600082825260208201905092915050565b7f596f7520646f6e2774206861766520616e79206f75747374616e64696e67206760008201527f726f7570207061796d656e740000000000000000000000000000000000000000602082015250565b6000611837602c836117ca565b9150611842826117db565b604082019050919050565b600060208201905081810360008301526118668161182a565b9050919050565b7f47726f7570207061796d656e742068617320616c7265616479206265656e207360008201527f6574746c65640000000000000000000000000000000000000000000000000000602082015250565b60006118c96026836117ca565b91506118d48261186d565b604082019050919050565b600060208201905081810360008301526118f8816118bc565b9050919050565b7f496e73756666696369656e742066756e64732073656e74000000000000000000600082015250565b60006119356017836117ca565b9150611940826118ff565b602082019050919050565b6000602082019050818103600083015261196481611928565b9050919050565b60006119768261169c565b61198081856117ca565b93506119908185602086016116b2565b611999816110b4565b840191505092915050565b60006040820190506119b96000830185611428565b81810360208301526119cb818461196b565b90509392505050565b60006119df82611355565b91506119ea83611355565b9250828203905081811115611a0257611a01611753565b5b92915050565b7f4174206c65617374206f6e6520667269656e6420697320726571756972656400600082015250565b6000611a3e601f836117ca565b9150611a4982611a08565b602082019050919050565b60006020820190508181036000830152611a6d81611a31565b9050919050565b7f4e487b7100000000000000000000000000000000000000000000000000000000600052601260045260246000fd5b6000611aae82611355565b9150611ab983611355565b925082611ac957611ac8611a74565b5b828204905092915050565b7f596f7520646f6e2774206861766520616e79206f75747374616e64696e67207060008201527f61796d656e740000000000000000000000000000000000000000000000000000602082015250565b6000611b306026836117ca565b9150611b3b82611ad4565b604082019050919050565b60006020820190508181036000830152611b5f81611b23565b9050919050565b7f5061796d656e742068617320616c7265616479206265656e20736574746c6564600082015250565b6000611b9c6020836117ca565b9150611ba782611b66565b602082019050919050565b60006020820190508181036000830152611bcb81611b8f565b9050919050565b50565b6000611be26000836117ca565b9150611bed82611bd2565b600082019050919050565b6000604082019050611c0d6000830184611428565b8181036020830152611c1e81611bd5565b90509291505056fea2646970667358221220c351a09f7bdd85327a7f3b8b8a9feae4028a0f90bce092838f78715a77b0635c64736f6c63430008120033",
  "linkReferences": {},
  "deployedLinkReferences": {}
}