{
  "_format": "hh-sol-artifact-1",
  "contractName": "SplitExpense",
  "sourceName": "contracts/SplitExpense.sol",
  "abi": [
    {
      "inputs": [],
      "stateMutability": "nonpayable",
      "type": "constructor"
    },
    {
      "anonymous": false,
      "inputs": [
        {
          "indexed": true,
          "internalType": "address",
          "name": "creator",
          "type": "address"
        },
        {
          "indexed": false,
          "internalType": "uint256",
          "name": "totalExpense",
          "type": "uint256"
        }
      ],
      "name": "ExpenseCreated",
      "type": "event"
    },
    {
      "anonymous": false,
      "inputs": [
        {
          "indexed": true,
          "internalType": "address",
          "name": "payer",
          "type": "address"
        },
        {
          "indexed": false,
          "internalType": "uint256",
          "name": "amount",
          "type": "uint256"
        },
        {
          "indexed": false,
          "internalType": "string",
          "name": "groupName",
          "type": "string"
        }
      ],
      "name": "ExpenseSettled",
      "type": "event"
    },
    {
      "anonymous": false,
      "inputs": [
        {
          "indexed": true,
          "internalType": "address",
          "name": "payer",
          "type": "address"
        },
        {
          "indexed": false,
          "internalType": "uint256",
          "name": "amount",
          "type": "uint256"
        },
        {
          "indexed": false,
          "internalType": "string",
          "name": "groupName",
          "type": "string"
        }
      ],
      "name": "ExpenseSplit",
      "type": "event"
    },
    {
      "inputs": [
        {
          "internalType": "string",
          "name": "_groupName",
          "type": "string"
        }
      ],
      "name": "calculateGroupPayment",
      "outputs": [
        {
          "internalType": "uint256",
          "name": "",
          "type": "uint256"
        }
      ],
      "stateMutability": "view",
      "type": "function"
    },
    {
      "inputs": [],
      "name": "calculatePayment",
      "outputs": [
        {
          "internalType": "uint256",
          "name": "",
          "type": "uint256"
        }
      ],
      "stateMutability": "view",
      "type": "function"
    },
    {
      "inputs": [
        {
          "internalType": "uint256",
          "name": "",
          "type": "uint256"
        }
      ],
      "name": "friends",
      "outputs": [
        {
          "internalType": "address",
          "name": "",
          "type": "address"
        }
      ],
      "stateMutability": "view",
      "type": "function"
    },
    {
      "inputs": [
        {
          "internalType": "string",
          "name": "_groupName",
          "type": "string"
        }
      ],
      "name": "getGroupShares",
      "outputs": [
        {
          "internalType": "address[]",
          "name": "",
          "type": "address[]"
        },
        {
          "internalType": "uint256[]",
          "name": "",
          "type": "uint256[]"
        }
      ],
      "stateMutability": "view",
      "type": "function"
    },
    {
      "inputs": [
        {
          "internalType": "string",
          "name": "",
          "type": "string"
        },
        {
          "internalType": "address",
          "name": "",
          "type": "address"
        }
      ],
      "name": "groupShares",
      "outputs": [
        {
          "internalType": "uint256",
          "name": "",
          "type": "uint256"
        }
      ],
      "stateMutability": "view",
      "type": "function"
    },
    {
      "inputs": [],
      "name": "owner",
      "outputs": [
        {
          "internalType": "address",
          "name": "",
          "type": "address"
        }
      ],
      "stateMutability": "view",
      "type": "function"
    },
    {
      "inputs": [
        {
          "internalType": "string",
          "name": "_groupName",
          "type": "string"
        }
      ],
      "name": "payGroupShare",
      "outputs": [],
      "stateMutability": "payable",
      "type": "function"
    },
    {
      "inputs": [],
      "name": "payMyShare",
      "outputs": [],
      "stateMutability": "payable",
      "type": "function"
    },
    {
      "inputs": [
        {
          "internalType": "address",
          "name": "",
          "type": "address"
        }
      ],
      "name": "paymentSettled",
      "outputs": [
        {
          "internalType": "bool",
          "name": "",
          "type": "bool"
        }
      ],
      "stateMutability": "view",
      "type": "function"
    },
    {
      "inputs": [
        {
          "internalType": "address",
          "name": "",
          "type": "address"
        }
      ],
      "name": "shares",
      "outputs": [
        {
          "internalType": "uint256",
          "name": "",
          "type": "uint256"
        }
      ],
      "stateMutability": "view",
      "type": "function"
    },
    {
      "inputs": [
        {
          "internalType": "address[]",
          "name": "_friends",
          "type": "address[]"
        },
        {
          "internalType": "string",
          "name": "_groupName",
          "type": "string"
        },
        {
          "internalType": "uint256",
          "name": "_totalExpense",
          "type": "uint256"
        }
      ],
      "name": "splitExpense",
      "outputs": [],
      "stateMutability": "nonpayable",
      "type": "function"
    }
  ],
  "bytecode": "0x608060405234801561001057600080fd5b50336000806101000a81548173ffffffffffffffffffffffffffffffffffffffff021916908373ffffffffffffffffffffffffffffffffffffffff160217905550611c6a806100606000396000f3fe60806040526004361061009c5760003560e01c8063ad96022c11610064578063ad96022c1461017a578063b6e7112f146101b7578063ca30d068146101c1578063ce146828146101fe578063ce7c2ac21461023b578063f640a0ae146102785761009c565b80631ce11efd146100a157806332d35c35146100df57806339bde84c146100fb5780638da5cb5b146101265780639d1242fa14610151575b600080fd5b3480156100ad57600080fd5b506100c860048036038101906100c39190611158565b6102b5565b6040516100d6929190611359565b60405180910390f35b6100f960048036038101906100f49190611158565b610652565b005b34801561010757600080fd5b506101106108cc565b60405161011d919061139f565b60405180910390f35b34801561013257600080fd5b5061013b610913565b60405161014891906113c9565b60405180910390f35b34801561015d57600080fd5b5061017860048036038101906101739190611470565b610937565b005b34801561018657600080fd5b506101a1600480360381019061019c919061152c565b610bcf565b6040516101ae9190611574565b60405180910390f35b6101bf610bef565b005b3480156101cd57600080fd5b506101e860048036038101906101e3919061158f565b610e4a565b6040516101f5919061139f565b60405180910390f35b34801561020a57600080fd5b50610225600480360381019061022091906115eb565b610e85565b60405161023291906113c9565b60405180910390f35b34801561024757600080fd5b50610262600480360381019061025d919061152c565b610ec4565b60405161026f919061139f565b60405180910390f35b34801561028457600080fd5b5061029f600480360381019061029a9190611158565b610edc565b6040516102ac919061139f565b60405180910390f35b6060806000805b60048054905081101561038d5760006003866040516102db9190611689565b90815260200160405180910390206000600484815481106102ff576102fe6116a0565b5b9060005260206000200160009054906101000a900473ffffffffffffffffffffffffffffffffffffffff1673ffffffffffffffffffffffffffffffffffffffff1673ffffffffffffffffffffffffffffffffffffffff16815260200190815260200160002054111561037a578180610376906116fe565b9250505b8080610385906116fe565b9150506102bc565b5060008167ffffffffffffffff8111156103aa576103a961102d565b5b6040519080825280602002602001820160405280156103d85781602001602082028036833780820191505090505b50905060008267ffffffffffffffff8111156103f7576103f661102d565b5b6040519080825280602002602001820160405280156104255781602001602082028036833780820191505090505b5090506000805b60048054905081101561064257600060038960405161044b9190611689565b908152602001604051809103902060006004848154811061046f5761046e6116a0565b5b9060005260206000200160009054906101000a900473ffffffffffffffffffffffffffffffffffffffff1673ffffffffffffffffffffffffffffffffffffffff1673ffffffffffffffffffffffffffffffffffffffff16815260200190815260200160002054111561062f57600481815481106104ef576104ee6116a0565b5b9060005260206000200160009054906101000a900473ffffffffffffffffffffffffffffffffffffffff1684838151811061052d5761052c6116a0565b5b602002602001019073ffffffffffffffffffffffffffffffffffffffff16908173ffffffffffffffffffffffffffffffffffffffff16815250506003886040516105779190611689565b908152602001604051809103902060006004838154811061059b5761059a6116a0565b5b9060005260206000200160009054906101000a900473ffffffffffffffffffffffffffffffffffffffff1673ffffffffffffffffffffffffffffffffffffffff1673ffffffffffffffffffffffffffffffffffffffff16815260200190815260200160002054838381518110610614576106136116a0565b5b602002602001018181525050818061062b906116fe565b9250505b808061063a906116fe565b91505061042c565b5082829550955050505050915091565b60006003826040516106649190611689565b908152602001604051809103902060003373ffffffffffffffffffffffffffffffffffffffff1673ffffffffffffffffffffffffffffffffffffffff168152602001908152602001600020549050600081116106f5576040517f08c379a00000000000000000000000000000000000000000000000000000000081526004016106ec906117c9565b60405180910390fd5b600260003373ffffffffffffffffffffffffffffffffffffffff1673ffffffffffffffffffffffffffffffffffffffff16815260200190815260200160002060009054906101000a900460ff1615610782576040517f08c379a00000000000000000000000000000000000000000000000000000000081526004016107799061185b565b60405180910390fd5b803410156107c5576040517f08c379a00000000000000000000000000000000000000000000000000000000081526004016107bc906118c7565b60405180910390fd5b6001600260003373ffffffffffffffffffffffffffffffffffffffff1673ffffffffffffffffffffffffffffffffffffffff16815260200190815260200160002060006101000a81548160ff0219169083151502179055503373ffffffffffffffffffffffffffffffffffffffff167f67580c7a049322660093961ac9680ef549ea5f1678a6f1a34ce1090aeb4a2d708284604051610865929190611920565b60405180910390a2803411156108c8573373ffffffffffffffffffffffffffffffffffffffff166108fc823461089b9190611950565b9081150290604051600060405180830381858888f193505050501580156108c6573d6000803e3d6000fd5b505b5050565b6000600160003373ffffffffffffffffffffffffffffffffffffffff1673ffffffffffffffffffffffffffffffffffffffff16815260200190815260200160002054905090565b60008054906101000a900473ffffffffffffffffffffffffffffffffffffffff1681565b600084849050905060008111610982576040517f08c379a0000000000000000000000000000000000000000000000000000000008152600401610979906119d0565b60405180910390fd5b600082116109c5576040517f08c379a00000000000000000000000000000000000000000000000000000000081526004016109bc90611a62565b60405180910390fd5b8484600491906109d6929190610f41565b50600081836109e59190611ab1565b905060005b82811015610b76578160016000898985818110610a0a57610a096116a0565b5b9050602002016020810190610a1f919061152c565b73ffffffffffffffffffffffffffffffffffffffff1673ffffffffffffffffffffffffffffffffffffffff16815260200190815260200160002081905550600060026000898985818110610a7657610a756116a0565b5b9050602002016020810190610a8b919061152c565b73ffffffffffffffffffffffffffffffffffffffff1673ffffffffffffffffffffffffffffffffffffffff16815260200190815260200160002060006101000a81548160ff02191690831515021790555081600386604051610aed9190611689565b90815260200160405180910390206000898985818110610b1057610b0f6116a0565b5b9050602002016020810190610b25919061152c565b73ffffffffffffffffffffffffffffffffffffffff1673ffffffffffffffffffffffffffffffffffffffff168152602001908152602001600020819055508080610b6e906116fe565b9150506109ea565b503373ffffffffffffffffffffffffffffffffffffffff167f6f957153bf9d65e09c315e31886ff280174bd0e84ca2c15bab952be297dd2ef08486604051610bbf929190611920565b60405180910390a2505050505050565b60026020528060005260406000206000915054906101000a900460ff1681565b6000600160003373ffffffffffffffffffffffffffffffffffffffff1673ffffffffffffffffffffffffffffffffffffffff16815260200190815260200160002054905060008111610c76576040517f08c379a0000000000000000000000000000000000000000000000000000000008152600401610c6d90611b54565b60405180910390fd5b600260003373ffffffffffffffffffffffffffffffffffffffff1673ffffffffffffffffffffffffffffffffffffffff16815260200190815260200160002060009054906101000a900460ff1615610d03576040517f08c379a0000000000000000000000000000000000000000000000000000000008152600401610cfa90611bc0565b60405180910390fd5b80341015610d46576040517f08c379a0000000000000000000000000000000000000000000000000000000008152600401610d3d906118c7565b60405180910390fd5b6001600260003373ffffffffffffffffffffffffffffffffffffffff1673ffffffffffffffffffffffffffffffffffffffff16815260200190815260200160002060006101000a81548160ff0219169083151502179055503373ffffffffffffffffffffffffffffffffffffffff167f67580c7a049322660093961ac9680ef549ea5f1678a6f1a34ce1090aeb4a2d7082604051610de49190611c06565b60405180910390a280341115610e47573373ffffffffffffffffffffffffffffffffffffffff166108fc8234610e1a9190611950565b9081150290604051600060405180830381858888f19350505050158015610e45573d6000803e3d6000fd5b505b50565b600382805160208101820180518482526020830160208501208183528095505050505050602052806000526040600020600091509150505481565b60048181548110610e9557600080fd5b906000526020600020016000915054906101000a900473ffffffffffffffffffffffffffffffffffffffff1681565b60016020528060005260406000206000915090505481565b6000600382604051610eee9190611689565b908152602001604051809103902060003373ffffffffffffffffffffffffffffffffffffffff1673ffffffffffffffffffffffffffffffffffffffff168152602001908152602001600020549050919050565b828054828255906000526020600020908101928215610fd0579160200282015b82811115610fcf57823573ffffffffffffffffffffffffffffffffffffffff168260006101000a81548173ffffffffffffffffffffffffffffffffffffffff021916908373ffffffffffffffffffffffffffffffffffffffff16021790555091602001919060010190610f61565b5b509050610fdd9190610fe1565b5090565b5b80821115610ffa576000816000905550600101610fe2565b5090565b6000604051905090565b600080fd5b600080fd5b600080fd5b600080fd5b6000601f19601f8301169050919050565b7f4e487b7100000000000000000000000000000000000000000000000000000000600052604160045260246000fd5b6110658261101c565b810181811067ffffffffffffffff821117156110845761108361102d565b5b80604052505050565b6000611097610ffe565b90506110a3828261105c565b919050565b600067ffffffffffffffff8211156110c3576110c261102d565b5b6110cc8261101c565b9050602081019050919050565b82818337600083830152505050565b60006110fb6110f6846110a8565b61108d565b90508281526020810184848401111561111757611116611017565b5b6111228482856110d9565b509392505050565b600082601f83011261113f5761113e611012565b5b813561114f8482602086016110e8565b91505092915050565b60006020828403121561116e5761116d611008565b5b600082013567ffffffffffffffff81111561118c5761118b61100d565b5b6111988482850161112a565b91505092915050565b600081519050919050565b600082825260208201905092915050565b6000819050602082019050919050565b600073ffffffffffffffffffffffffffffffffffffffff82169050919050565b60006111f8826111cd565b9050919050565b611208816111ed565b82525050565b600061121a83836111ff565b60208301905092915050565b6000602082019050919050565b600061123e826111a1565b61124881856111ac565b9350611253836111bd565b8060005b8381101561128457815161126b888261120e565b975061127683611226565b925050600181019050611257565b5085935050505092915050565b600081519050919050565b600082825260208201905092915050565b6000819050602082019050919050565b6000819050919050565b6112d0816112bd565b82525050565b60006112e283836112c7565b60208301905092915050565b6000602082019050919050565b600061130682611291565b611310818561129c565b935061131b836112ad565b8060005b8381101561134c57815161133388826112d6565b975061133e836112ee565b92505060018101905061131f565b5085935050505092915050565b600060408201905081810360008301526113738185611233565b9050818103602083015261138781846112fb565b90509392505050565b611399816112bd565b82525050565b60006020820190506113b46000830184611390565b92915050565b6113c3816111ed565b82525050565b60006020820190506113de60008301846113ba565b92915050565b600080fd5b600080fd5b60008083601f84011261140457611403611012565b5b8235905067ffffffffffffffff811115611421576114206113e4565b5b60208301915083602082028301111561143d5761143c6113e9565b5b9250929050565b61144d816112bd565b811461145857600080fd5b50565b60008135905061146a81611444565b92915050565b6000806000806060858703121561148a57611489611008565b5b600085013567ffffffffffffffff8111156114a8576114a761100d565b5b6114b4878288016113ee565b9450945050602085013567ffffffffffffffff8111156114d7576114d661100d565b5b6114e38782880161112a565b92505060406114f48782880161145b565b91505092959194509250565b611509816111ed565b811461151457600080fd5b50565b60008135905061152681611500565b92915050565b60006020828403121561154257611541611008565b5b600061155084828501611517565b91505092915050565b60008115159050919050565b61156e81611559565b82525050565b60006020820190506115896000830184611565565b92915050565b600080604083850312156115a6576115a5611008565b5b600083013567ffffffffffffffff8111156115c4576115c361100d565b5b6115d08582860161112a565b92505060206115e185828601611517565b9150509250929050565b60006020828403121561160157611600611008565b5b600061160f8482850161145b565b91505092915050565b600081519050919050565b600081905092915050565b60005b8381101561164c578082015181840152602081019050611631565b60008484015250505050565b600061166382611618565b61166d8185611623565b935061167d81856020860161162e565b80840191505092915050565b60006116958284611658565b915081905092915050565b7f4e487b7100000000000000000000000000000000000000000000000000000000600052603260045260246000fd5b7f4e487b7100000000000000000000000000000000000000000000000000000000600052601160045260246000fd5b6000611709826112bd565b91507fffffffffffffffffffffffffffffffffffffffffffffffffffffffffffffffff820361173b5761173a6116cf565b5b600182019050919050565b600082825260208201905092915050565b7f596f7520646f6e2774206861766520616e79206f75747374616e64696e67206760008201527f726f7570207061796d656e740000000000000000000000000000000000000000602082015250565b60006117b3602c83611746565b91506117be82611757565b604082019050919050565b600060208201905081810360008301526117e2816117a6565b9050919050565b7f47726f7570207061796d656e742068617320616c7265616479206265656e207360008201527f6574746c65640000000000000000000000000000000000000000000000000000602082015250565b6000611845602683611746565b9150611850826117e9565b604082019050919050565b6000602082019050818103600083015261187481611838565b9050919050565b7f496e73756666696369656e742066756e64732073656e74000000000000000000600082015250565b60006118b1601783611746565b91506118bc8261187b565b602082019050919050565b600060208201905081810360008301526118e0816118a4565b9050919050565b60006118f282611618565b6118fc8185611746565b935061190c81856020860161162e565b6119158161101c565b840191505092915050565b60006040820190506119356000830185611390565b818103602083015261194781846118e7565b90509392505050565b600061195b826112bd565b9150611966836112bd565b925082820390508181111561197e5761197d6116cf565b5b92915050565b7f4174206c65617374206f6e6520667269656e6420697320726571756972656400600082015250565b60006119ba601f83611746565b91506119c582611984565b602082019050919050565b600060208201905081810360008301526119e9816119ad565b9050919050565b7f546f74616c20657870656e7365206d757374206265206772656174657220746860008201527f616e207a65726f00000000000000000000000000000000000000000000000000602082015250565b6000611a4c602783611746565b9150611a57826119f0565b604082019050919050565b60006020820190508181036000830152611a7b81611a3f565b9050919050565b7f4e487b7100000000000000000000000000000000000000000000000000000000600052601260045260246000fd5b6000611abc826112bd565b9150611ac7836112bd565b925082611ad757611ad6611a82565b5b828204905092915050565b7f596f7520646f6e2774206861766520616e79206f75747374616e64696e67207060008201527f61796d656e740000000000000000000000000000000000000000000000000000602082015250565b6000611b3e602683611746565b9150611b4982611ae2565b604082019050919050565b60006020820190508181036000830152611b6d81611b31565b9050919050565b7f5061796d656e742068617320616c7265616479206265656e20736574746c6564600082015250565b6000611baa602083611746565b9150611bb582611b74565b602082019050919050565b60006020820190508181036000830152611bd981611b9d565b9050919050565b50565b6000611bf0600083611746565b9150611bfb82611be0565b600082019050919050565b6000604082019050611c1b6000830184611390565b8181036020830152611c2c81611be3565b90509291505056fea2646970667358221220f498292ece1036414a9301ea2ca344736242e55a9363a4d3d4b1acaa6f90d04564736f6c63430008120033",
  "linkReferences": {},
  "deployedLinkReferences": {}
}