{
  "_format": "hh-sol-artifact-1",
  "contractName": "SettleExpense",
  "sourceName": "contracts/SettleExpense.sol",
  "abi": [
    {
      "inputs": [],
      "stateMutability": "nonpayable",
      "type": "constructor"
    },
    {
      "anonymous": false,
      "inputs": [
        {
          "indexed": true,
          "internalType": "address",
          "name": "sender",
          "type": "address"
        },
        {
          "indexed": true,
          "internalType": "address",
          "name": "recipient",
          "type": "address"
        },
        {
          "indexed": false,
          "internalType": "uint256",
          "name": "amount",
          "type": "uint256"
        }
      ],
      "name": "FundsTransferred",
      "type": "event"
    },
    {
      "inputs": [],
      "name": "owner",
      "outputs": [
        {
          "internalType": "address",
          "name": "",
          "type": "address"
        }
      ],
      "stateMutability": "view",
      "type": "function"
    },
    {
      "inputs": [
        {
          "internalType": "address payable",
          "name": "_recipient",
          "type": "address"
        },
        {
          "internalType": "uint256",
          "name": "_amount",
          "type": "uint256"
        }
      ],
      "name": "settleExpense",
      "outputs": [],
      "stateMutability": "nonpayable",
      "type": "function"
    },
    {
      "stateMutability": "payable",
      "type": "receive"
    }
  ],
  "bytecode": "0x608060405234801561001057600080fd5b50336000806101000a81548173ffffffffffffffffffffffffffffffffffffffff021916908373ffffffffffffffffffffffffffffffffffffffff1602179055506106f6806100606000396000f3fe60806040526004361061002d5760003560e01c80633aeb8cc51461007c5780638da5cb5b146100a557610077565b366100775760003411610075576040517f08c379a000000000000000000000000000000000000000000000000000000000815260040161006c90610394565b60405180910390fd5b005b600080fd5b34801561008857600080fd5b506100a3600480360381019061009e919061044d565b6100d0565b005b3480156100b157600080fd5b506100ba610313565b6040516100c791906104ae565b60405180910390f35b60008054906101000a900473ffffffffffffffffffffffffffffffffffffffff1673ffffffffffffffffffffffffffffffffffffffff163373ffffffffffffffffffffffffffffffffffffffff161461015e576040517f08c379a00000000000000000000000000000000000000000000000000000000081526004016101559061053b565b60405180910390fd5b600073ffffffffffffffffffffffffffffffffffffffff168273ffffffffffffffffffffffffffffffffffffffff16036101cd576040517f08c379a00000000000000000000000000000000000000000000000000000000081526004016101c4906105a7565b60405180910390fd5b60008111610210576040517f08c379a000000000000000000000000000000000000000000000000000000000815260040161020790610394565b60405180910390fd5b60004790508273ffffffffffffffffffffffffffffffffffffffff166108fc839081150290604051600060405180830381858888f1935050505015801561025b573d6000803e3d6000fd5b50818161026891906105f6565b47146102a9576040517f08c379a00000000000000000000000000000000000000000000000000000000081526004016102a090610676565b60405180910390fd5b8273ffffffffffffffffffffffffffffffffffffffff163373ffffffffffffffffffffffffffffffffffffffff167f78e6250172d8e0a57d8d41f480f13581571a2d27bb2a93f5f7bd2511f5c22a6c8460405161030691906106a5565b60405180910390a3505050565b60008054906101000a900473ffffffffffffffffffffffffffffffffffffffff1681565b600082825260208201905092915050565b7f496e76616c696420616d6f756e74000000000000000000000000000000000000600082015250565b600061037e600e83610337565b915061038982610348565b602082019050919050565b600060208201905081810360008301526103ad81610371565b9050919050565b600080fd5b600073ffffffffffffffffffffffffffffffffffffffff82169050919050565b60006103e4826103b9565b9050919050565b6103f4816103d9565b81146103ff57600080fd5b50565b600081359050610411816103eb565b92915050565b6000819050919050565b61042a81610417565b811461043557600080fd5b50565b60008135905061044781610421565b92915050565b60008060408385031215610464576104636103b4565b5b600061047285828601610402565b925050602061048385828601610438565b9150509250929050565b6000610498826103b9565b9050919050565b6104a88161048d565b82525050565b60006020820190506104c3600083018461049f565b92915050565b7f4f6e6c7920746865206f776e65722063616e2063616c6c20746869732066756e60008201527f6374696f6e000000000000000000000000000000000000000000000000000000602082015250565b6000610525602583610337565b9150610530826104c9565b604082019050919050565b6000602082019050818103600083015261055481610518565b9050919050565b7f496e76616c696420726563697069656e74206164647265737300000000000000600082015250565b6000610591601983610337565b915061059c8261055b565b602082019050919050565b600060208201905081810360008301526105c081610584565b9050919050565b7f4e487b7100000000000000000000000000000000000000000000000000000000600052601160045260246000fd5b600061060182610417565b915061060c83610417565b9250828203905081811115610624576106236105c7565b5b92915050565b7f5472616e73666572206661696c65640000000000000000000000000000000000600082015250565b6000610660600f83610337565b915061066b8261062a565b602082019050919050565b6000602082019050818103600083015261068f81610653565b9050919050565b61069f81610417565b82525050565b60006020820190506106ba6000830184610696565b9291505056fea2646970667358221220f967cf3599db93d6c94c79affa1aa7331b05b18afabe1bc5d11814b8dcdcef8d64736f6c63430008120033",
  "linkReferences": {},
  "deployedLinkReferences": {}
}